:020000040800F2
:100000000020002061040008B1040008B1040008C9
:1000100000000000000000000000000000000000E0
:10002000000000000000000000000000B104000813
:100030000000000000000000B1040008B50F000837
:10004000B1040008B1040008B1040008B1040008BC
:10005000B1040008B1040008B1040008B1040008AC
:10006000B1040008B1040008B1040008B10400089C
:10007000B1040008B104000800000000B104000849
:1000800000000000B10400080000000000000000B3
:10009000B104000800000000B1040008B104000829
:1000A000B1040008B1040008B1040008B10400085C
:1000B000B1040008B1040008B1040008B10400084C
:1000C000054B0648033310B51B1A062B03D9044B06
:1000D000002B00D0984710BD040000200400002031
:1000E000000000000648074910B5091A8910CB0F17
:1000F0005918491003D0044B002B00D0984710BD6D
:1001000004000020040000200000000010B5074C8F
:100110002378002B09D1FFF7D3FF054B002B02D02A
:10012000044800E000BF0123237010BD040000203C
:1001300000000000A4150008094B10B5002B03D0E7
:100140000849094800E000BF08480368002B02D1B5
:10015000FFF7C8FF10BD064B002BF9D09847F7E713
:100160000000000008000020A41500080400002082
:1001700000000000002243088B4274D303098B4225
:100180005FD3030A8B4244D3030B8B4228D3030C67
:100190008B420DD3FF22090212BA030C8B4202D309
:1001A0001212090265D0030B8B4219D300E0090A31
:1001B000C30B8B4201D3CB03C01A5241830B8B423A
:1001C00001D38B03C01A5241430B8B4201D34B0323
:1001D000C01A5241030B8B4201D30B03C01A524188
:1001E000C30A8B4201D3CB02C01A5241830A8B420D
:1001F00001D38B02C01A5241430A8B4201D34B02F6
:10020000C01A5241030A8B4201D30B02C01A524159
:10021000CDD2C3098B4201D3CB01C01A524183090D
:100220008B4201D38B01C01A524143098B4201D347
:100230004B01C01A524103098B4201D30B01C01A72
:100240005241C3088B4201D3CB00C01A52418308EC
:100250008B4201D38B00C01A524143088B4201D319
:100260004B00C01A5241411A00D201465241104679
:100270007047FFE701B5002000F0F0F802BDC0466E
:100280000029F7D076E7704703460B437FD400225E
:1002900043088B4274D303098B425FD3030A8B421A
:1002A00044D3030B8B4228D3030C8B420DD3FF2284
:1002B000090212BA030C8B4202D31212090265D052
:1002C000030B8B4219D300E0090AC30B8B4201D305
:1002D000CB03C01A5241830B8B4201D38B03C01A4C
:1002E0005241430B8B4201D34B03C01A5241030BC3
:1002F0008B4201D30B03C01A5241C30A8B4201D374
:10030000CB02C01A5241830A8B4201D38B02C01A1E
:100310005241430A8B4201D34B02C01A5241030A95
:100320008B4201D30B02C01A5241CDD2C3098B427A
:1003300001D3CB01C01A524183098B4201D38B01F7
:10034000C01A524143098B4201D34B01C01A52419A
:1003500003098B4201D30B01C01A5241C3088B42DF
:1003600001D3CB00C01A524183088B4201D38B00CA
:10037000C01A524143088B4201D34B00C01A52416C
:10038000411A00D201465241104670475DE0CA0F43
:1003900000D04942031000D34042534000229C4603
:1003A00003098B422DD3030A8B4212D3FC2289010D
:1003B00012BA030A8B420CD3890192118B4208D3E3
:1003C000890192118B4204D389013AD0921100E045
:1003D0008909C3098B4201D3CB01C01A5241830959
:1003E0008B4201D38B01C01A524143098B4201D386
:1003F0004B01C01A524103098B4201D30B01C01AB1
:100400005241C3088B4201D3CB00C01A524183082A
:100410008B4201D38B00C01A5241D9D243088B4280
:1004200001D34B00C01A5241411A00D20146634623
:1004300052415B10104601D34042002B00D5494287
:10044000704763465B1000D3404201B5002000F0C6
:1004500005F802BD0029F8D016E770477047C0467E
:100460000D488546002103E00C4B5B584350043196
:100470000B480C4B42189A42F6D30B4A02E0002379
:1004800013600432094B9A42F9D300F099FD01F050
:1004900063F800F0FFFBFEE700200020DC150008F9
:1004A0000000002004000020040000209400002030
:1004B000FEE7000080B586B000AFF860B9603B6031
:1004C000BB1D1A80FB68BA681A60FB68BA1D1288E7
:1004D0009A80BB68C0221206944663449A0A172386
:1004E000FB181A702A4B2A4AD26A17217918097800
:1004F0000120884001000A43DA62FB681B68FA6841
:1005000012681268B91D098849000320884001005B
:10051000C9430A401A60FB681B68FA6812681268CF
:10052000B91D098849000120884001000A431A606A
:10053000FB683A689A60FB682022BA1812889A8190
:100540003B68C0221206944663449A0A1623FB189D
:100550001A700F4B0E4AD26A1621791809780120B9
:10056000884001000A43DA62FB689B68FA68926877
:100570001268202179180988490003208840010069
:10058000C9430A401A60C046BD4606B080BDC04699
:100590000010024080B582B000AF78607B689B6835
:1005A0001B697A689289110001228A4013405A1E01
:1005B0009341DBB21800BD4602B080BD80B582B069
:1005C00000AF78607B689B681B697A68928911002C
:1005D00001228A4013405A425341DBB21800BD4603
:1005E00002B080BD80B584B000AF78600023FB60AE
:1005F0007B681B687A681268526979688988080084
:10060000012181400A435A610A2000F075FF7B688E
:100610001B687A6812685269796889880800012124
:100620008140C9430A405A61C0467B681800FFF701
:10063000C5FF031EF9D105E03A2000F05DFFFB681D
:100640000133FB607B681800FFF7A4FF031EF3D1A2
:10065000044B180000F050FFFB681800BD4604B0C2
:1006600080BDC0468038010090B583B000AF78608F
:1006700039600F4C3B68FF2213400D493A68FF2058
:1006800002400232920052583968090C0F2088400B
:100690000100C94311403A68120C7868904002008A
:1006A0000A4302339B001A51C046BD4603B090BDB9
:1006B0000000014080B584B000AFF860B9607A6096
:1006C000FB681968BB68BA685A4313005B009B1843
:1006D000DB430B401A00BB68B9684B4379684B4356
:1006E0001A43FB681A60C046BD4604B080BDC046D0
:1006F00080B584B000AFF860B9607A60FB68D968F3
:10070000BB68BA685A4313005B009B18DB430B407D
:100710001A00BB68B9684B4379684B431A43FB68BE
:10072000DA60C046BD4604B080BDC04680B582B028
:1007300000AF786039607B683A689A62C046BD460F
:1007400002B080BD80B584B000AF7860074B074A27
:10075000D16A7A680A43DA62044BDB6A7A6813402A
:10076000FB60FB68C046BD4604B080BD001002407F
:1007700080B588B000AF0420FFF7E4FF8020FFF7CA
:10078000E1FF0120FFF7DEFFA023DB052021180099
:10079000FFF7CCFF414B19000220FFF765FF8023D4
:1007A0009B013F4800221900FFF7A2FF80239B0115
:1007B0003B4800221900FFF77DFF3B008022920199
:1007C0001A603B0001221A713B0000225A713B0063
:1007D00002229A713B00180000F0B8FC0823FB18B5
:1007E00004221A600823FB1802225A600823FB180F
:1007F00003229A600823FB180022DA600823FB1802
:1008000000221A610823FB1804225A610823FA18EF
:10081000A023DB051100180000F0DEFD0823FB1803
:1008200008221A600823FB1802225A600823FB18CA
:1008300003229A600823FB180022DA600823FB18C1
:1008400000221A610823FB1804225A610823FA18AF
:10085000A023DB051100180000F0BEFD0823FB18E3
:1008600020221A600823FB1801225A600823FB1873
:1008700000229A600823FB180022DA600823FB1884
:1008800000221A610823FA18A023DB0511001800C2
:1008900000F0A2FDC046BD4608B080BD03000400C4
:1008A0000008005080B586B000AFF860B960BB1D8D
:1008B0001A80FB68BA681A60FB68BA1D12889A80B1
:1008C000BB68C0221206944663449A0A1723FB1899
:1008D0001A70154B144AD26A172179180978012029
:1008E000884001000A43DA62FB681B68FA681268F4
:1008F0001268B91D09884900032088400100C943D6
:100900000A401A60FB681B68FA6812681268B91D11
:10091000098849000120884001000A431A60C04646
:10092000BD4606B080BDC0460010024080B582B012
:1009300000AF78607B681B685B697A6892881100F9
:1009400001228A4013405A425341DBB21800BD468F
:1009500002B080BD80B582B000AF78607B681B6854
:100960007A68126852697968898808000121814093
:100970000A435A61C046BD4602B080BD80B582B010
:1009800000AF78607B681B687A6812685269796882
:100990008988080001218140C9430A405A61C04644
:1009A000BD4602B080BDC046B0B582B000AF020007
:1009B0003960FB1D1A70FB1D1B787F2B32D92F4C21
:1009C000FB1D1B781A000F231340083B99082B4A84
:1009D000FB1D1B7818000F230340083B9B080633C0
:1009E0009B00D31804331B68FA1D127810000322F1
:1009F0000240D200FF2090400200D2431A403B68E0
:100A00009B01FF201840FB1D1B781D0003232B407A
:100A1000DB00984003001A438B1D9B00E31804334E
:100A20001A6027E0164CFB1D1B785BB29B0814492B
:100A3000FA1D127852B29208C03292005258F91D33
:100A40000978080003210140C900FF208840010007
:100A5000C94311403A689201FF201040FA1D1278F4
:100A6000150003222A40D200904002000A43C033FE
:100A70009B001A51C046BD4602B0B0BD00ED00E07B
:100A800000E100E080B500AF044B044A1268012188
:100A90000A431A60C046BD4680BDC04600100240F1
:100AA00080B500AF044B1B68042213405A1E9341CB
:100AB000DBB21800BD4680BD0010024080B582B098
:100AC00000AF7860064B064A5268064911407A68C2
:100AD00012020A435A60C046BD4602B080BDC046FD
:100AE00000100240FFE0FFFF80B582B000AF7860E9
:100AF000064B064AD26803218A4311007A680A43EA
:100B0000DA60C046BD4602B080BDC046001002405B
:100B100080B500AF034BDB680C2213401800BD46C4
:100B200080BDC0460010024080B582B000AF786042
:100B3000064B064AD268F0218A4311007A680A43BC
:100B4000DA60C046BD4602B080BDC046001002401B
:100B500080B582B000AF7860054B054AD268054980
:100B600011407A680A43DA60C046BD4602B080BDD3
:100B700000100240FFF8FFFF80B582B000AF786040
:100B8000054B054AD268054911407A680A43DA6084
:100B9000C046BD4602B080BD00100240FFC7FFFF47
:100BA00080B584B000AF7860074B074A916B7A68D4
:100BB0000A439A63044B9B6B7A681340FB60FB68A3
:100BC000C046BD4604B080BD0010024080B584B070
:100BD00000AF7860074B074A516B7A680A435A6343
:100BE000044B5B6B7A681340FB60FB68C046BD46F4
:100BF00004B080BD0010024080B582B000AF7860C4
:100C0000064B064A126801218A4311007A680A439A
:100C10001A60C046BD4602B080BDC04600200240FA
:100C200080B500AF034B1B68012213401800BD467E
:100C300080BDC0460020024080B582B000AF786021
:100C40007B68042B06D1084B074A126804210A432B
:100C50001A6005E0044B044A126804218A431A60B2
:100C6000C046BD4602B080BD10E000E080B582B055
:100C700000AF7860054B054A1268054911407A6853
:100C80000A431A60C046BD4602B080BD00700040F5
:100C9000FFE7FFFF80B59AB002AF00F01DF900F04A
:100CA0003BF9FFF765FDA023D9057A4B0522180013
:100CB000FFF7F8FD774B1800FFF74CFEA023D9058E
:100CC000754B05221800FFF7EDFDA023D905734BE6
:100CD00006221800FFF7E6FDA023D905704B072276
:100CE0001800FFF7DFFD6F496F4B06221800FFF772
:100CF000D9FD6E496E4B07221800FFF7D3FDA023E4
:100D0000D9056C4B09221800FFF7CCFDA023D905AB
:100D1000694B08221800FFF7C5FD6249674B0A229C
:100D20001800FFF7BFFD5F49654B04221800FFF76D
:100D3000B9FD5C49634B05221800FFF7B3FDA02302
:100D4000D905614B0A221800FFF7ACFD3B1D534A41
:100D500003CA03C33B1D524A083303CA03C33B1DE6
:100D6000514A103303CA03C33B1D514A183303CA07
:100D700003C33B1D4F4A203303CA03C33B1D4E4AE6
:100D8000283303CA03C33B1D4C4A303303CA03C391
:100D90003B1D4B4A383303CA03C33B1D494A40330A
:100DA00003CA03C33B1D484A483303CA03C33D4A31
:100DB0003C4946480023009313000822FFF77AFBC2
:100DC000434B00221A60FA239B01180000F084FBB9
:100DD0003E4B1800FFF706FC02003D4B1A603C4BEF
:100DE0001B68322B23DD0023FB6509E03A1DFB6DF8
:100DF000DB00D3181800FFF7C1FDFB6D0133FB6565
:100E0000FB6D092BF2DD244B1800FFF78FFD031E4D
:100E100004D0214B1800FFF79DFD03E01E4B180086
:100E2000FFF7ACFD2B4B180000F066FBD0E7284B1A
:100E30001B6805211800FFF727FA03001A00244B4E
:100E40001A60154B1800FFF799FD0023BB6509E0F8
:100E50003A1DBB6DDB00D3181800FFF77BFDBB6D9F
:100E60000133BB651A4B1B68BA6D9A42F0DB184B15
:100E70001B687B6509E03A1D7B6DDB00D318180009
:100E8000FFF77CFD7B6D01337B657B6D092BF2DD0C
:100E90009EE7C0468400002058000020500000203B
:100EA00028000020000400508C00002000080050A2
:100EB00048000020200000204000002038000020D2
:100EC000640000206C00002030000020740000202E
:100ED00060000020A086010080B500AF0120FFF770
:100EE00075FE80235B051800FFF75AFE05235B4261
:100EF00000211800FFF758FD02235B420021180073
:100F0000FFF752FD01235B4200211800FFF74CFD63
:100F1000C046BD4680BDC04680B500AF0020FFF78B
:100F20006BFEFFF77DFE031E04D01D4B9E211800B3
:100F300000F03AF880231B011800FFF797FEFFF737
:100F4000A1FDC046FFF7ACFD031E012BFAD1102016
:100F5000FFF7B4FD0020FFF7E7FD0020FFF7F8FDE5
:100F60000020FFF709FE0120FFF7BEFDC046FFF796
:100F7000CFFD031E042BFAD10A4B180000F0ACFA87
:100F80000420FFF759FE074B180000F0D7FA0123A1
:100F90005B4200211800FFF707FDC046BD4680BD3B
:100FA000C41500080024F40080B582B000AF78605A
:100FB0003960FEE780B500AFC046BD4680BDC04683
:100FC00080B500AF174B174A1268802149000A43C9
:100FD0001A60144B134AD26813490A40DA60114B65
:100FE000104A126811490A401A600E4B0D4A926865
:100FF00001218A439A600B4B0A4A12680C490A4045
:101000001A60084B074AD2680A490A40DA60054B61
:1010100000221A61084B802212059A60C046BD4624
:1010200080BDC046001002400C40FF88F6FFF6FE6F
:10103000FFFFFBFFFFFF02FF00ED00E080B582B085
:1010400000AF7860044B044A11687A680A431A605A
:10105000C046BD4602B080BD0004014080B582B0EC
:1010600000AF7860054B054A12687968C9430A40A9
:101070001A60C046BD4602B080BDC04600040140B3
:1010800080B582B000AF7860044B044A51687A683A
:101090000A435A60C046BD4602B080BD000401400C
:1010A00080B582B000AF7860054B054A5268796818
:1010B000C9430A405A60C046BD4602B080BDC04622
:1010C0000004014080B582B000AF7860044B044A50
:1010D00091687A680A439A60C046BD4602B080BDF6
:1010E0000004014080B582B000AF7860054B054A2E
:1010F00092687968C9430A409A60C046BD4602B00A
:1011000080BDC0460004014080B582B000AF786069
:10111000044B044AD1687A680A43DA60C046BD4687
:1011200002B080BD0004014080B582B000AF78609D
:10113000054B054AD2687968C9430A40DA60C0465F
:10114000BD4602B080BDC0460004014080B584B0F9
:1011500000AF78600F23FB1801221A707B681B799F
:10116000002B64D07B681B68002B6AD07B685B799E
:10117000012B0ED0022B17D0002B20D17B681B68CF
:101180001800FFF78DFF7B681B681800FFF756FFFC
:101190001AE07B681B681800FFF760FF7B681B681C
:1011A0001800FFF76DFF0FE07B681B681800FFF762
:1011B00045FF7B681B681800FFF762FF04E00F2300
:1011C000FB1800221A70C0467B689B79002B38D030
:1011D0007B689B79022B0ED0032B17D0012B20D1DB
:1011E0007B681B681800FFF79FFF7B681B6818006F
:1011F000FFF768FF25E07B681B681800FFF772FFA8
:101200007B681B681800FFF77FFF1AE07B681B688C
:101210001800FFF757FF7B681B681800FFF774FF83
:101220000FE00F23FB1800221A70C04609E07B680C
:101230001B681800FFF712FF7B681B681800FFF798
:101240002FFF0F23FB181B781800BD4604B080BD8C
:1012500080B584B000AFF860B9607A60FB68196847
:10126000BB68BA685A4313005B009B18DB430B4012
:101270001A00BB68B9684B4379684B431A43FB6853
:101280001A60C046BD4604B080BDC04680B584B07B
:1012900000AFF860B9607A60FB685B68BA68D243F7
:1012A0001A40BB6879684B431A43FB685A60C046D2
:1012B000BD4604B080BDC04680B584B000AFF860C4
:1012C000B9607A60FB689968BB68BA685A431300D2
:1012D0005B009B18DB430B401A00BB68B9684B43AB
:1012E00079684B431A43FB689A60C046BD4604B018
:1012F00080BDC04680B584B000AFF860B9607A6048
:10130000FB68D968BB68BA685A4313005B009B1836
:10131000DB430B401A00BB68B9684B4379684B4309
:101320001A43FB68DA60C046BD4604B080BDC046C3
:1013300080B584B000AFF860B9607A60FB68196A64
:10134000BB68BA685343BA685343BA685A43130038
:101350001B019B1ADB430B401A00BB68B9684B4367
:10136000B9684B43B9684B4379684B431A43FB68F0
:101370001A62C046BD4604B080BDC04680B584B088
:1013800000AFF860B9607A60FB68596ABB681B0AF5
:10139000BA68120A5343BA68120A5343BA68120A67
:1013A0005A4313001B019B1ADB430B401A00BB6816
:1013B0001B0AB968090A4B43B968090A4B43B96863
:1013C000090A4B4379684B431A43FB685A62C0468B
:1013D000BD4604B080BDC04680B584B000AF786023
:1013E00039600023FB600023BB6040E03B681B6862
:1013F0000121FA6891400A001340BB60BB68002BD2
:1014000032D03B685A68B9687B681800FFF720FF44
:101410003B685B68012B03D03B685B68022B06D1FD
:101420003B689A68B9687B681800FFF745FF3B681E
:101430001A69B9687B681800FFF75CFF3B685B6856
:10144000022B11D1BB68FF2B07D83B685A69B968DA
:101450007B681800FFF76CFF06E03B685A69B968C3
:101460007B681800FFF78AFFFB680133FB603B686D
:101470001A68FB68DA40131EB8D13B685B68012B21
:1014800003D03B685B68022B07D13B6819683B6857
:10149000DA687B681800FFF7F9FE01231800BD46E3
:1014A00004B080BD90B583B000AF78603960094C5E
:1014B00039687868FEF75EFE0300013B6360054B08
:1014C00000229A60034B05221A60C046BD4603B055
:1014D00090BDC04610E000E080B582B000AF7860FB
:1014E000FA239A007B6811001800FFF7DBFFC04663
:1014F000BD4602B080BDC04680B584B000AF786004
:101500000D4B1B68FB60FB687B6801330CD07B686C
:1015100001337B6008E0084B1A6880235B021340AC
:1015200002D07B68013B7B607B68002BF3D1C04617
:10153000BD4604B080BDC04610E000E080B582B07A
:1015400000AF7860034B7A681A60C046BD4602B0AF
:1015500080BDC046000000200E4B70B500251E0067
:101560000D4CE41AA410A54204D0AB00F3589847E0
:101570000135F8E700F016F8084B00251E00084C6E
:10158000E41AA410A54204D0AB00F35898470135E3
:10159000F8E770BDD4150008D4150008D41500086C
:1015A000D8150008F8B5C046F8BC08BC9E46704780
:0C15B000F8B5C046F8BC08BC9E46704769
:1015BC00081C3044586C80002E2E2F5372632F6DF4
:0815CC0061696E2E630000004E
:0415D40039010008D1
:0415D8000D010008F9
:0415DC0080841E00E9
:04000005080004618A
:00000001FF
