:020000040800F2
:10000000002000208D020008DD020008DD0200084B
:1000100000000000000000000000000000000000E0
:10002000000000000000000000000000DD020008E9
:100030000000000000000000DD020008A507000825
:10004000DD020008DD020008DD020008DD02000814
:10005000DD020008DD020008DD020008DD02000804
:10006000DD020008DD020008DD020008DD020008F4
:10007000DD020008DD02000800000000DD020008CB
:1000800000000000DD020008000000000000000089
:10009000DD02000800000000DD020008DD020008AB
:1000A000DD020008DD020008DD020008DD020008B4
:1000B000DD020008DD020008DD020008DD020008A4
:1000C000054B0648033310B51B1A062B03D9044B06
:1000D000002B00D0984710BD040000200400002031
:1000E000000000000648074910B5091A8910CB0F17
:1000F0005918491003D0044B002B00D0984710BD6D
:1001000004000020040000200000000010B5074C8F
:100110002378002B09D1FFF7D3FF054B002B02D02A
:10012000044800E000BF0123237010BD040000203C
:1001300000000000600A0008094B10B5002B03D036
:100140000849094800E000BF08480368002B02D1B5
:10015000FFF7C8FF10BD064B002BF9D09847F7E713
:100160000000000008000020600A000804000020D1
:1001700000000000002243088B4274D303098B4225
:100180005FD3030A8B4244D3030B8B4228D3030C67
:100190008B420DD3FF22090212BA030C8B4202D309
:1001A0001212090265D0030B8B4219D300E0090A31
:1001B000C30B8B4201D3CB03C01A5241830B8B423A
:1001C00001D38B03C01A5241430B8B4201D34B0323
:1001D000C01A5241030B8B4201D30B03C01A524188
:1001E000C30A8B4201D3CB02C01A5241830A8B420D
:1001F00001D38B02C01A5241430A8B4201D34B02F6
:10020000C01A5241030A8B4201D30B02C01A524159
:10021000CDD2C3098B4201D3CB01C01A524183090D
:100220008B4201D38B01C01A524143098B4201D347
:100230004B01C01A524103098B4201D30B01C01A72
:100240005241C3088B4201D3CB00C01A52418308EC
:100250008B4201D38B00C01A524143088B4201D319
:100260004B00C01A5241411A00D201465241104679
:100270007047FFE701B5002000F006F802BDC04658
:100280000029F7D076E770477047C0460D4885468D
:10029000002103E00C4B5B58435004310B480C4BDE
:1002A00042189A42F6D30B4A02E00023136004324C
:1002B000094B9A42F9D300F077FA00F0ABFB00F05B
:1002C00085F9FEE700200020800A000800000020D9
:1002D00004000020040000208C000020FEE7000045
:1002E000F0B54E4657464546E0B4204F8A46F96A77
:1002F00002608846C0210906838056180120FF212C
:10030000B60A8C460E400100B1400E00414608ADD1
:1003100010CD0E432D88FE625E0003239846B34045
:100320001168994311600100B14013680B431360D9
:1003300053469D801C60C02361461B06E3189B0A40
:100340000B40010099400B00FA6A13434246FB62DE
:100350006B009A40984021689143216022681043C5
:1003600020601CBC90469946A246F0BD0010024099
:1003700070B50125026806000C00818828008840BD
:100380005369034353610A2000F028FB2800B18819
:1003900032688840536983435361A288236895403B
:1003A0001B692B4211D0002501263A2000F016FBD4
:1003B0003100236801351A69A38899400A42F4D1B3
:1003C000034800F00BFB280070BD0025F8E7C0468D
:1003D00040420F00F0B557464E464546E0B404256E
:1003E00080200127304B8CB0DA6AA0262A43DA62DB
:1003F000DA6AF6052A400392039AD96A0024014377
:10040000D962DA6AF02102400292029ADA6A04A8FA
:100410003A43DA62DB6A254A3B400193019B202381
:100420009846B36253698B4341460B435361204B5B
:10043000204AD9681140D96019680A401A6080239F
:100440009B0104930223994607714471837100F064
:10045000D9F94B4606A90793300001339A46089311
:10046000069509940A940B9500F022FA0823069346
:100470004B460793534606A93000089309940A9403
:100480000B9500F015FA434606A93000069307972E
:10049000089409940A9400F00BFA0CB01CBC904626
:1004A0009946A246F0BDC04600100240000001403F
:1004B00000080050FFFFFFF3012370B51E008C03FE
:1004C000240EA64003248280520094409340064D9F
:1004D0000160E86A3043E8620868A0430860086881
:1004E00003430B6070BDC046001002400123016849
:1004F00080884A69834013434B6170470122016839
:1005000080884B69824093434B6170470122254BA1
:1005100010B51968914319601B681A4240D12249ED
:10052000224B086803408020000103430B60204BEE
:1005300019680A431A6004211A0010681C4B014212
:10054000FBD059681B4A0A40802149010A43F02127
:100550005A60DA688A43DA60D968174A0A40DA6072
:10056000D968164A0A400321DA60DA688A43110022
:1005700001220A43DA600C22DC681440042CFBD10F
:100580000F4800F01BFA0F4B0D481A6814431C600B
:1005900000F03AFA0C4A136A1B021B0A136210BDE0
:1005A000FEE7C0460020024000700040FFE7FFFF6A
:1005B00000100240FFE0FFFFFFF8FFFFFFC7FFFF53
:1005C0000024F40010E000E000ED00E0F0B55F462C
:1005D00056464D46444601205F4BF0B4596B99B0E6
:1005E000014359635A6B5D4D02400292029A802288
:1005F000996B5205114399639B6B1A400392039BBD
:10060000574BDA691202120ADA61196A554A0A402E
:100610001A621A6A1202120A1A62FFF777FFFFF7CC
:10062000D9FEA021504B06221800C9059B46FFF7B2
:1006300043FFA0210722C9054C48FFF73DFF4C4B63
:100640000622180029009946FFF736FF494B07227A
:10065000180049499846FFF72FFFA021474F09226C
:100660003800C905FFF728FFA021454E08223000B9
:10067000C905FFF721FF0A2229004248FFF71CFFA6
:10068000042229004048FFF717FF052229003F48B0
:10069000FFF712FFA0213E4C0A222000C905FFF7F8
:1006A0000BFFA0213B48C9050522FFF705FF5A466D
:1006B00004AB9A4603CA03C32C4A03CA03C34A467F
:1006C00008AB03CA03C342460AAB03CA03C30CAB5D
:1006D00006CF06C30EAB06CE06C32A4A10AB03CA2A
:1006E00003C3294A12AB03CA03C3284A14AB03CA83
:1006F00003C316AB06CC06C3274B00269946274BEF
:10070000019698460095404608232A004946FFF77F
:10071000E7FDFA20224C8001266000F04FF949469F
:100720004046FFF725FE051E20600BDD57460026DC
:100730003800FFF7DBFE256801360837B542F7DCE5
:10074000092DECDCEE00564430000135FFF7D6FEF3
:1007500008360A2DF8D1E2E70010024000040050EC
:1007600000ED00E0FFFF00FF5800002028000020FF
:1007700084000020500000200008005020000020CD
:100780004000002038000020740000207C00002081
:100790003000002068000020600000204800002099
:1007A000700000207047C0468021104B49001A6835
:1007B0000A431A60D9680E4A0A40DA6019680D4A7D
:1007C0000A4001211A609A688A439A6019680A4AA5
:1007D0000A401A60D968094A0A40DA6000221A61A0
:1007E0008022074B12059A607047C04600100240F5
:1007F0000C40FF88F6FFF6FEFFFFFBFFFFFF02FF46
:1008000000ED00E002790300002A1DD002680120FB
:10081000002A18D0597901292CD000291FD002298B
:1008200026D1224908681043086048681043486090
:1008300001209B79002B06D0022B1FD0032B2DD03B
:10084000012B23D0002070470368184ADB4311684E
:1008500001201940116051680B405360F3E71349C0
:100860004868904348600868104308600120E0E74A
:100870000020DEE70D4908689043D5E70B4B9968E7
:1008800091439960D9680A43DA60DCE7074BD9687D
:100890009143D96099680A439A60D4E7034B9968F9
:1008A00011439960D9680A43DA60CCE7000401403B
:1008B000F0B55F464D4656464446F0B40D688B464B
:1008C000002D00D176E04B680024984601235B425E
:1008D00043449C460CE0C36899465B4649461B6905
:1008E0000A407B431A43C2602B000134E34043D0EB
:1008F0000123A3402B40F7D01F0002685F439146BD
:100900007A00D2194E46D2431640B14646467E433F
:10091000B2464E4651460E43614606600129DAD87A
:10092000816889465946896879438A464946114013
:10093000894651464E4631438160C16889465946D1
:10094000096979438A4649460A4051460A43C260CA
:100950004246022AC8D1FF2B1FD83A0059467A4393
:1009600049691701BF1A4A43036A0134BB431A435A
:100970002B000262E340BBD16346012B06D85B46E5
:100980004268DB68AA435D431543456001203CBCD7
:1009900090469946A246AB46F0BD59461B0A5B43BA
:1009A0005B4349691F01FF1A4B43426ABA43134331
:1009B000436299E74B68013B9C46DDE7FA2110B59D
:1009C0008900FFF7D7FB0022034B013858609A607B
:1009D00005321A6010BDC04610E000E0094A82B03E
:1009E00013680193019B431C591E8B418021C01841
:1009F000490213680B42FCD001380028F9D102B03B
:100A00007047C04610E000E0014B18607047C046D8
:100A1000000000200E4B70B500251E000D4CE41A9E
:100A2000A410A54204D0AB00F35898470135F8E76D
:100A300000F016F8084B00251E00084CE41AA4101C
:100A4000A54204D0AB00F35898470135F8E770BDD4
:100A5000780A0008780A0008780A00087C0A00086A
:100A6000F8B5C046F8BC08BC9E467047F8B5C0460D
:080A7000F8BC08BC9E4670476B
:040A78003901000838
:040A7C000D01000860
:040A800080841E0050
:040000050800028D60
:00000001FF
